:020000040800F2
:10000000285C002079030008C360000891520008B2
:10001000C1600008712100086D7300080000000035
:10002000000000000000000000000000B90200080D
:10003000732100080000000015030008D5690008BE
:100040009303000893030008930300089303000838
:10005000930300082161000893030008930300083C
:100060009303000893030008930300089303000818
:100070009303000893030008930300089303000808
:100080009303000893030008930300080000000096
:1000900000000000000000000000000093030008C2
:1000A00093030008930300089303000893030008D8
:1000B000A56A00089303000893030008A1520008F2
:1000C0009552000893030008930300089303000867
:1000D00061630008656F00089303000800000000DA
:1000E0009303000893030008930300080000000036
:1000F0000000000000000000000000009303000862
:100100000000000093030008930300089303000815
:1001100000000000000000000000000000000000DF
:100120009303000893030008930300089303000857
:100130009303000800000000000000000000000021
:100140000000000000000000000000009303000811
:10015000930300089303000893030008716F0008DD
:100160009303000893030008000000000000000053
:10017000000000000000000000000000000000007F
:1001800000000000930300080000000000000000D1
:10019000930300089303000800F002F800F07CF8D5
:1001A0000AA090E8000C82448344AAF10107DA45D2
:1001B00001D100F071F8AFF2090EBAE80F0013F0A8
:1001C000010F18BFFB1A43F00103184788BF000056
:1001D000A8BF00000A444FF0000C10F8013B13F0D8
:1001E000070408BF10F8014B1D1108BF10F8015B90
:1001F000641E05D010F8016B641E01F8016BF9D183
:1002000013F0080F1EBF10F8014BAD1C0C1B09D1D9
:100210006D1E58BF01F801CBFAD505E014F8016B4B
:1002200001F8016B6D1EF9D59142D6D370470000DD
:100230000023002400250026103A28BF78C1FBD8EF
:10024000520728BF30C148BF0B60704766290BF0CA
:10025000C68565290BF0C385642900F0C381782920
:1002600000F0FC81002070471FB50BF0B3FD9DE846
:10027000030000F03FFD01F04DF8040000200021D4
:100280000AF0A8FF401C6060002000210AF0B8FFBF
:10029000E0601FBD10B510BD01F020FB1146FFF757
:1002A000E3FF08F08BF901F03EFB03B4FFF7F2FF28
:1002B00003BC01F06FFB00002C4B19680868B0E824
:1002C000F04F80F30988BFF36F8F4FF0000080F389
:1002D000118870470000000008480068006880F33B
:1002E00008884FF0000080F3148862B661B6BFF34F
:1002F0004F8FBFF36F8F00DF00BF00BF08ED00E03E
:10030000DFF80C00016841F470010160704700BF24
:1003100088ED00E0EFF30980BFF36F8F134B1A688D
:100320001EF0100F08BF20ED108A20E9F04F10607A
:1003300009B44FF0500080F31188BFF34F8FBFF323
:100340006F8F0AF04FF94FF0000080F3118809BC5D
:1003500019680868B0E8F04F1EF0100F08BFB0EC45
:10036000108A80F30988BFF36F8F704788010020DF
:10037000EFF30580704700000948804709480047AF
:10038000FEE7FEE7FEE7FEE7FEE7FEE7FEE7FEE745
:10039000FEE7FEE704480549054A064B70470000A2
:1003A000956A000899010008284C0020285C00206C
:1003B000285800202858002070B5064600F07EFC22
:1003C000056806F10B0020F00704B4429CBF002032
:1003D00070BD2B466A68BAB11068A04210D304F110
:1003E000080188423CBF5068586007D35168101913
:1003F00041601168091B016058601460101D70BDD8
:1004000013465268002AE7D12146284600F05EFCD8
:100410000028DED170BD70B50446051F00F04EFC0B
:100420000068002C14BF446870BD002C18BFAC429B
:100430003CBF20466468F8D301680A18AA4218BF76
:10044000456003D12A6805461144016028684119B6
:10045000A1421CBF6C6070BD61686960216808447E
:10046000286070BD53EA020C00F069802DE9F04B62
:100470004FF00006002B1FBFB3FA83F503FA05F413
:1004800024FA05F65E4012BF1643B2FA82F502FA6C
:1004900005F4C5F120051EBF22FA05FC44EA0C0450
:1004A000203556EA044C4FEA144418BF641C4FF040
:1004B00000084FF00009904271EB030C39D300297A
:1004C00019BFB1FA81F701FA07F6B0FA80F700FA1E
:1004D00007F6C7F120071EBF20FA07FC46EA0C0604
:1004E0002037B6FBF4FCA7EB0507103F07F01F0B06
:1004F000CBF120060CFA0BFB2CFA06F644BFB346F0
:100500000026202FA4BF5E464FF0000B5BEA060CCE
:1005100008BF4FF0010B19EB0B09ABFB027C48EB5A
:100520000608C01B06FB02CC0BFB03CC71EB0C01D5
:10053000C1E70B46024641464846BDE8F08B13B57D
:100540004FF000004FF00001AFF30080BDE81C4009
:10055000704710B5044600F0A9FB0068005DC006B6
:1005600002D504F1200010BD204610BD0FB41CB50B
:10057000074B06AA7B4469460090059800F069FE87
:100580000020694600F078FE1CBC5DF814FB0000FA
:10059000010D000070B5044685690068C10601D5EB
:1005A000302600E02026C00707D070BDD4E9012125
:1005B00030469047206A401C20626D1EF6D570BD03
:1005C00070B5044685690078C00707D170BDD4E9CD
:1005D000012120209047206A401C20626D1EF6D524
:1005E00070BD00002DE9F041064600241068752911
:1005F000314616A510D0AFF30080002802DA404241
:1006000013A507E031688A0701D512A502E0490762
:1006100004D511A5012401E0AFF3008000210A22D6
:1006200006F1240709E0B0FBF2FCB0FBF2F302FB99
:100630001C00303078541846491C0028F3D123465A
:100640002A463046BDE8F04100F095BB00000000AE
:100650002D0000002B0000002000000070B50446B3
:100660000D4621461068AFF300802188090502D5A8
:100670000F4A7A4402E00E4A7A440E32002104F115
:10068000240305E000F00F060009965D5E54491C46
:100690000028F7D120780023000704D5702D02D060
:1006A00009B1022311322046BDE8704000F063BB5F
:1006B00046B900002DE9F05F894604464FF0000A74
:1006C000DFF824B1FB44C0F820A02046E168884749
:1006D00000287DD0252806D0D4E901219047206A42
:1006E000401C2062F1E700255F462046E16888470C
:1006F0002028064607DB312E05D2B81910F8200C49
:1007000008B10543F1E7A80701D525F00405C4F8B1
:100710001CA00027C4F818A02A2E09D0304607F0E4
:10072000DFFD38B304EB8708303EC8F8186019E0E5
:1007300059F8041B204604EB87029161E168884761
:10074000012F064618D1E069002820DA25F020059F
:100750001DE0D8F8180000EB800006EB40003038B0
:10076000C8F818002046E1688847064607F0B8FD3B
:100770000028EED1012F0AD02E2E08D12046E168A4
:1007800088477F1C0646022F45F02005C4DBA06980
:10079000002803DA404245F00105A061E80701D0D6
:1007A00025F01005A6B1A6F14100192802D820367F
:1007B00045F400654A463146204625604D46FFF720
:1007C00045FD60B1012807D0ED1D25F0070000E0D0
:1007D00007E000F1080978E705F1040975E73046FC
:1007E0007AE7206ABDE8F09F1CB900000FB400B59D
:1007F0008DB010A9099000910B904FF0FF300A9036
:1008000000200C90064878440690064878446A46D2
:1008100007900F9909A800F049FD0DB05DF814FB91
:10082000C30A0000DB0A00002DE9FF5F1D464FF000
:10083000FF3B91464FF000085F46D5E90146A969A4
:1008400001987F1C8847296A824688470028F6D18C
:10085000BAF1FF3F0CD0002E24F4C06419DD60060D
:1008600014D5BAF12B0F09D0BAF12D0F0ED103E038
:10087000584604B0BDE8F09F44F48064A96901982B
:100880007F1C8847761E8246002E02DDBAF1300FAB
:1008900003D0B9F1000F26D032E0A969761E019885
:1008A0007F1C44F400748847002E824605DDBAF1AF
:1008B000780F06D0BAF1580F03D0B9F1000F10D05D
:1008C0001EE0B9F1000F02D0B9F1100F18D1A969DB
:1008D000761E01987F1C24F40074884782461020FD
:1008E00002E0082000E00A20814609E0A96908FB2F
:1008F0000908761E01987F1C44F4007488478246DC
:10090000002E05DD4946504600F0BBFC0028EDDA1C
:10091000E96901988847A00502D46FF00100A8E7B3
:10092000E00725D1600613D5600502D5C8F10000A7
:1009300000E0404629680A1D2A600968220501D5A1
:10094000087015E0220701D5088011E008600FE06B
:100950002868011D29600068210502D580F8008003
:1009600006E0210702D5A0F8008001E0C0F8008071
:1009700038467EE7401ECAB210F8011F8A4202D0F4
:100980000029F9D10020704740EA0103024630B542
:100990009B0710D14FF0013400E008C208C91D1BAD
:1009A0009D4315EAC41FF8D013F0FF0102F8011BA4
:1009B0000DD01B0AF8E711F8013B002B02F8013BB0
:1009C00005D011F8013B002B02F8013BF3D130BDFB
:1009D00010B5431C02E010F8011B71B18107FAD178
:1009E0004FF0013202C88C1A8C4314EAC211F9D0BC
:1009F000C01A0A0603D0C01E10BDC01A10BD0A04DA
:100A000001D0801E10BD0902FCD0401E10BD40EA7E
:100A1000010370B59B072ED14FF00136042A2AD36B
:100A200008C810C99D1B9D43121F15EAC61517D093
:100A3000D8B2E1B2401A50EA056110D198B2A1B221
:100A4000401A50EA05410AD123F07F4024F07F414B
:100A5000401A50EA052102D1180EA0EB146070BDB7
:100A6000A342DBD018BA21BA884201D9012070BD57
:100A70004FF0FF3070BD0AB9002070BD10F8013B87
:100A800011F8014B63B1A3420AD1521E08D010F8ED
:100A9000013B11F8014B1BB1A34201D1521EEDD114
:100AA000181B70BD032A40F2308010F0030C00F0D8
:100AB000158011F8013BBCF1020F624498BF11F898
:100AC00001CB00F8013B38BF11F8013BA2F1040251
:100AD00098BF00F801CB38BF00F8013B11F00303C9
:100AE00000F02580083AC0F0088051F8043B083A2D
:100AF00051F804CBA0E80810F5E7121D5CBF51F8CF
:100B0000043B40F8043BAFF30080D20724BF11F848
:100B1000013B11F801CB48BF11F8012B24BF00F8AD
:100B2000013B00F801CB48BF00F8012B704710B51E
:100B3000203AC0F00B80B1E81850203AA0E81850D5
:100B4000B1E81850A0E81850BFF4F5AF5FEA027C96
:100B500024BFB1E81850A0E8185044BF18C918C005
:100B6000BDE810405FEA827C24BF51F8043B40F8A6
:100B7000043B08BF7047D20728BF31F8023B48BF8B
:100B800011F8012B28BF20F8023B48BF00F8012BC9
:100B900070474FF000020429C0F0128010F0030CDF
:100BA00000F01B80CCF1040CBCF1020F18BF00F860
:100BB000012BA8BF20F8022BA1EB0C0100F00DB80F
:100BC0005FEAC17C24BF00F8012B00F8012B48BF6D
:100BD00000F8012B70474FF0000200B51346944611
:100BE0009646203922BFA0E80C50A0E80C50B1F185
:100BF0002001BFF4F7AF090728BFA0E80C5048BF99
:100C00000CC05DF804EB890028BF40F8042B08BF36
:100C1000704748BF20F8022B11F0804F18BF00F832
:100C2000012B70474FF0013C50F8042B51F8043B66
:100C30009A4221D1A2EB0C03934313EACC1317D1B0
:100C400050F8042B51F8043B9A4215D1A2EB0C0347
:100C5000934313EACC130BD150F8042B51F8043B07
:100C60009A4209D1A2EB0C03934313EACC13DBD0D5
:100C70004FF00000704700BFD01A01BAB1FA81F1FD
:100C800001F0180122FA01F0CB40C1F12001DBB2E2
:100C9000C0B2C01A2CFA01F3D11A914311EAC31160
:100CA000E6D17047704770477047000010B500F0FC
:100CB00031FB001D10BD00BF1DA50000004870479E
:100CC000D04B0020704770477047704738B50446D6
:100CD0000A4600206946AFF30080002808BF38BDEF
:100CE00002460099204600F01DFB012038BD01207E
:100CF00000F0ECBDF8B5AFF30080054600200C46CF
:100D0000102000BF0646A819A0420DD932466946F8
:100D10000020AFF30080070008BF00F0D7FD009867
:100D2000A04218BF0546C419FFF7C8FF0560074673
:100D3000F01D20F007004619284600F00AF8B442DA
:100D400008BFF8BDA21B31463868BDE8F84000F086
:100D5000E9BA00210160C0E9011070471020704716
:100D600010B500F0DBFA006810BD10B5044600F0C5
:100D7000D5FA046010BD2DE9F0470D46994692461C
:100D8000044600F124080168880604D5E06921F0D2
:100D90001001216000E00120A84201DD471B00E0B6
:100DA0000027A1697A1902EB0900081AA0612078CE
:100DB000C00602D42046FFF7EDFB002608E0D4E988
:100DC00001211AF806009047206A401C761C206218
:100DD0004E45F4DB2078C0060AD52046FFF7DAFB43
:100DE00006E0D4E9012130209047206A401C2062AF
:100DF000381EA7F10107F4DC07E0D4E9012118F857
:100E000005009047206A401C2062281EA5F10105BC
:100E1000F3DC2046FFF7D4FB2078000602D5022041
:100E2000BDE8F0870120FBE770472DE9FF4F0C4636
:100E30001E464FF0FF378BB0D2E90001DDF860802D
:100E40000A908A46C1F30A5505B93D460021084675
:100E50004FF00000BAF1000F00F4400005DA00EB9B
:100E600080004FF4400101EA50004FEA9059B9F177
:100E7000010F00DDB9460A9850EA4A000ED044F648
:100E80001050A5F2FF3545432F14B8F1000F1ED0C6
:100E90007542291E1EDDC9F100021CE0B8F1010FE8
:100EA0004FF0000001D0302103E0F24305E021546F
:100EB000401CB042FBDB30460022002121540B993C
:100EC000C1F80880C1E900200FB0BDE8F08FBD1B5C
:100ED0006D1CDEE74A4600DA694206A800F084FC91
:100EE00006AB93E8070003AB83E8070050460A9976
:100EF00000F076FD8DE80700A0F500501F38009047
:100F00000398002D0ADD42F21F014A4608440023DF
:100F100003A90390684600F0DFFF09E0A0F5005048
:100F20004A461F38002303A90390684600F0E9FFF2
:100F30008DE807000004000C03D04FF0FF3041089B
:100F400000E01046B8F1000F03D0002200921546D1
:100F50001EE0751E05D400F0FFF9303262556D1E9B
:100F6000F9D5B3460122084302D000227F1C04E0D9
:100F70002078302801D100227F1E002A099784D0D2
:100F80001DE0112D07DA00F0E7F9303262556D1CD3
:100F900050EA0102F5D1084302D00098C8B10EE032
:100FA0000021681E05E0235C625C63542254401EED
:100FB000491C8142F7DBAB46A81B401E099000206C
:100FC00004F80B000B98099AC0F80880C0E9002BC0
:100FD0007AE711264FF0000857E72DE9F04F8846D1
:100FE0000446D21D22F0070191B0D1E90001CDE9FC
:100FF0000A0106F0BCF902460B98C00F01D02D2063
:1010000007E02068810701D52B2002E0202101EABA
:10101000C000032A099001D0072A05DB0346414698
:10102000204600F0E7F90BE12078800601D5E06961
:1010300000E00620B8F1650F814606D0B8F1660FD2
:1010400018D0B8F1670F70D131E00020B9F1110F5D
:10105000009001DB112301E009F101030AAA01A9B3
:101060000CA8FFF7E2FEDDE90C70002609F101058E
:10107000834647E001204B4600904FF000470AAA04
:1010800001A90CA8FFF7D1FEDDE90DB00C995D4672
:10109000002610B909F101000D18B9EB050003D4C1
:1010A000C0F1FF3609F10105A5EB09002BE0B9F10C
:1010B000010F01DA4FF001090020B9F1110F009082
:1010C000484601DD112300E003460AAA01A90CA845
:1010D000FFF7ABFEDDE90C704D4600268346207815
:1010E00000070AD4AB4500DA5D4601A8012D04DDF6
:1010F000411911F8011C302907D04F4502DA17F1C8
:10110000040F04DA012082460FE06D1EEEE7002F87
:1011100002DCED1B3E4403E0781CA84200DD7D1C90
:10112000B81B00F1010A4FF000472078000703D4F4
:10113000AA4501DB4FF0FF3A0021B7F1004F0DF156
:1011400043088DF8431024D002202B23002F01DA0E
:101150007F422D230A21021EA0F1010000DC5FB1B5
:1011600097FBF1FC97FBF1F201FB1C7C17460CF19D
:10117000300C08F801CDEEE7A8F1010003702188DA
:10118000090501D5452100E06521A0F1010800F81D
:10119000011C09980FA9A1EB0807FF1D00B1012050
:1011A000411901EBEA70A1693844081A401EA06198
:1011B0002078C00602D42046FFF7ECF9099828B140
:1011C000D4E901219047206A401C20622078C006A3
:1011D00022D52046FFF7DEF91EE0002E04DBB345E2
:1011E00002DD01A8805D00E03020D4E901219047B4
:1011F000206A401C2062761CAAF101005FEA000A06
:101200000AD100F087F8C0680168405CD4E9012188
:101210009047206A401C2062281EA5F10105DCDCF5
:1012200007E0D4E9012118F8010B9047206A401C1F
:101230002062381EA7F10107F3DC2046FFF7C0F952
:10124000032011B041E6000001694A1C02610878E0
:10125000704700B58FB0CDE90131002105910549F6
:101260007944CDE9031011466846FFF723FA0FB021
:1012700000BD0000E5FFFFFF0A6802F8010B0A60ED
:1012800070473A2800D2303820F02002412A01D39A
:10129000A2F13700884201D34FF0FF3070470000C1
:1012A000026811441378016018467047D1600549FF
:1012B0007944516104497944116200211161114658
:1012C00000F0D8B8EDFFFFFF29010000426842B1ED
:1012D000016811F8013B23B1521EC0E90012184603
:1012E00070470121C160881E704742685AB1C368C7
:1012F000016843B983688B4205D0491E521CC0E97E
:101300000012002070474FF0FF30704700487047D0
:10131000C84B002000487047E84B00200048704749
:10132000C84B0020034640688C46002818BF8842FE
:101330003CBF03464068F8D318681844884207D079
:101340000CF1030020F00700001D411A521A01465B
:10135000081D0A60FFF75FB830B5B0F10A024FEA26
:10136000900E71F100034EEA817EB0EB0E0061EB4E
:1013700091014FEA101E4EEA017E10EB0E0041EB88
:1013800011114FEA102E4EEA016E10EB0E0041EBE8
:1013900011214FEA104E4EEA014E10EB0E0041EBC8
:1013A0001141401841F100014FEAD00040EA41707C
:1013B0004FEAD10110EB80054FEA810444EA9074B2
:1013C00044EB01046D1944EB0404521BA3414FF09C
:1013D000000348BF0A3200D530BD401C41F1000176
:1013E00030BD10B50446FFF761FC0068005D00F0F9
:1013F000010010BD2DE9F0411F4604460326016897
:10140000072A01F4006004DB08B116A505E016A563
:1014100003E008B115A500E015A521F0100020603B
:10142000A069C01EA0610FB1401EA0612046FFF759
:10143000B1F84FB1D4E9012138469047206A401CE9
:101440002062C01C206206E0206AFAE7D4E901218C
:1014500015F8010B9047761EF8D22046FFF7B0F83A
:10146000BDE8F0814E414E006E616E00494E46006F
:10147000696E66002DE9F34F4FF0000A0C465646A0
:101480008DB001200C9001F10C000B9062690B985B
:1014900001219047051E2DD0252D2CD0216A88478B
:1014A000C0B162690B9801219047216A88470028E2
:1014B000F7D16269411E0B98904700E0761CA16944
:1014C0000D988847216A88470028F7D1E1690D986F
:1014D0008847DBE7A1690D988847A842074601D1F4
:1014E000761CD3E7E1690D9888477F1C02D1BAF1D9
:1014F000000F6FD06CE162690B9800273D463946BA
:1015000090472A2804D162690B9801219047012550
:10151000DFF8D08262690B9801219047A0F1300179
:101520000A290AD24745E5DC07EB870100EB4107B2
:10153000303FDFD445F01005ECE7E90601D46FF049
:1015400000476C280AD04C2814D0682815D06A2887
:101550000DD074281CD07A281AD01DE062690B982F
:10156000012190476C2802D045F0040514E045F0B5
:1015700002050DE045F020050AE062690B980121A3
:101580009047682802D045F0080505E045F400655D
:1015900062690B9801219047C4E9015765283DD045
:1015A00019DC58287AD00CDC452837D004DC2528F3
:1015B00026D041289ED131E046282FD0472899D106
:1015C0002CE05B2877D0612828D063287CD0642861
:1015D00023D15AE0F7E06F2848D008DC66281DD0F8
:1015E00067281BD0692821D06E2816D127E07028E3
:1015F00045D0732868D0752847D078280DD14DE0A4
:10160000A1690D988847252805463FF469AFE1692F
:101610000D9888476D1C3FF46AAFD9E00D992346B9
:101620006A466FF00100AFF30080C6E045F040006D
:1016300023464FF000026060A80736D43EE0E8077A
:101640007FF447AF2068011D21600068290501D59E
:1016500006701BE7290701D5068017E7A90703D500
:10166000F117C0E9006111E706600FE745F040009F
:1016700023464FF008026060A80716D41EE040F62B
:101680000E0125EA0100606016E045F040002346A7
:101690004FF00A026060A80707D40FE045F0400051
:1016A0006060A80708D5234610220D996FF001004D
:1016B000AFF3008081E007E0102223460D996FF020
:1016C0000100FFF7B1F878E04FF0000963284F46BA
:1016D000C8464B46CB4602D05B2807D039E020797C
:1016E000C00601D40120A060012732E06269D4F86D
:1016F0000CB00B98012190475E2807D14FF00109EB
:1017000049466269D4F80CB00B989047216939B901
:1017100000210A4603AB43F82120491C0829FADBC3
:10172000D8B3216949B308F1010862690B98012116
:1017300090475D28F4D1B9F1000F09D0002003A92A
:1017400051F82020D24341F82020401C0828F7DB24
:1017500003AB2069002820794FEA40701ED05B4619
:101760002246CDF80080CDE901970D9900286FF051
:10177000010020DAAFF300801FE0C11703AA00EBDD
:10178000D1614B1121F01F0102EB8302411A136852
:101790000120884003431360C7E719E00D992246F2
:1017A00000286FF00100009702DAAFF3008004E038
:1017B000AFF3008001E0AFF3008000280ADA401C9C
:1017C00006D10C9820B14FF0FF300FB0BDE8F08F7C
:1017D0005046FAE7E90701D10AF1010A0644002060
:1017E0000C9053E6CCCCCC0C2DE9F0478146164644
:1017F0008AB0354878440DC88DE80D0032487844E9
:10180000801C03AC0DC884E80D0041F69B300844F1
:10181000372190FBF1F290FBF1F5A5F1800501FB7A
:1018200012041B3C02D56442012000E00020DFF8D6
:1018300098A080460027FA44AAF1BE0A0EE0E0070D
:101840000AD03246684607EB470101230AEB8101C3
:1018500000F057FB8DE8070064107F1C002CEED1D0
:10186000194F7F44AE3F19E0E80715D007EB04108D
:101870000DF1180A90E80E008AE80E00C068F042E8
:1018800001D1981908903246012306A903A800F057
:1018900038FB03AB83E807006D10641C002DE3D117
:1018A0004FF0010332466946B8F1000F03A802D099
:1018B00000F012FB01E000F024FBC9E90001C9F8C7
:1018C00008200AB0BDE8F0870CA9000010B500F0B0
:1018D00039F8BDE8104000F02FB870477546FFF7A3
:1018E00015FDAE4605006946534620F007008546C3
:1018F00018B020B5FEF74EFDBDE820404FF00006C1
:101900004FF000074FF000084FF0000B21F00701E7
:10191000AC46ACE8C009ACE8C009ACE8C009ACE82A
:10192000C0098D46704710B50446AFF300802046CD
:10193000BDE81040FEF7B9BC002801D000F02AB87D
:101940007047000010B5012805D0002103A000F069
:1019500027F8012010BD09A1F8E7000053494752BC
:10196000544D454D3A204F7574206F66206865616F
:1019700070206D656D6F7279000000003A20486537
:101980006170206D656D6F727920636F7272757012
:101990007465640001491820ABBEFEE72600020012
:1019A00070B505460C460A2000E06D1C00F011F8E9
:1019B00035B128780028F8D102E0641C00F009F85D
:1019C00014B120780028F8D1BDE870400A20AFF3A8
:1019D000008008B569468DF800000320ABBE08BD45
:1019E0005FEA400C08BF91F0000F4FEA8C234FEAEA
:1019F000C12243EA51514FEA1C5018BF00F5F04094
:101A00004FEA300018BF41F000415FEA6C5C00F023
:101A10002980BCF1FF3F08BF40F080407047130CA5
:101A200006BF12044FF0100C4FF0000C130E04BF51
:101A300012020CF1080C130F04BF12010CF1040C7C
:101A4000930F04BF92000CF1020CD30F04BF52009D
:101A50000CF1010C11464FF00002A0F11F00A0EBA9
:101A60000C00704711F0004F08BF704731F0004183
:101A70003FF4D5AF0B0C06BF09044FF0100C4FF02C
:101A8000000C0B0E04BF09020CF1080C0B0F04BF75
:101A900009010CF1040C8B0F04BF89000CF1020C3E
:101AA000CB0F04BF49000CF1010CCCF12003A0EBDB
:101AB0000C0022FA03F302FA0CF241EA030100F1EE
:101AC0000100704720F07F4C80EA030023F07F473D
:101AD000ACEB070303F57C5300F0004003F1FF0378
:101AE0002DE980494FEA154B09B44FEA144325EA22
:101AF0000B4E24EA03480FF2042606EB132749088D
:101B00003E785FEA320203FB0667C7F5000707FB72
:101B100006F64FEA54374FEAD64606F1020607FBAF
:101B2000066CCCF1005C4FEA1C472CEA074C07FB23
:101B300006F40CFB06F504EB15464FEA961634BF87
:101B400000204FF000404FEAD13706FB07FC4FEA78
:101B50001C4C0CFB0BF7D21B03FB0CF761EB0701D2
:101B60000CFB0EF7B0EB074072EB17420CFB08F7CB
:101B700034BFA2EB0742B2EB074261EB17414FEAD9
:101B80000C444FEA910706FB07FC4FEA1C4C0CFB88
:101B90000BF7B0EBC74072EB573203FB0CF734BFC7
:101BA000A2EBC742B2EBC74261EB57310CFB0EF719
:101BB000B0EBC70072EB57720CFB08F734BFA2EB17
:101BC000C702B2EBC70261EB5771039F4FEA816115
:101BD00041EA921104EBCC044FEAD1374FEA82621A
:101BE00006FB07FC42EA90124FEA80604FEA1C4C69
:101BF0000CFB0BF7D21B03FB0CF761EB07010CFB93
:101C00000EF7B0EB074072EB17420CFB08F734BF3E
:101C1000A2EB0742B2EB074261EB17414FEA8C554A
:101C20004FEA910704EB9C2406FB07FC4FEA1C4C8F
:101C30000CFB0BF7B0EBC74072EB573203FB0CF712
:101C400034BFA2EBC742B2EBC74261EB57310CFB8A
:101C50000EF7B0EBC70072EB57720CFB08F734BFFE
:101C6000A2EBC702B2EBC70261EB577115EB4C2533
:101C70004FEA816141EA92114FEA82624FEAD1371D
:101C800042EA901206FB07FC44F100044FEA806030
:101C90004FEA1C4C0CFB0BF7D21B03FB0CF761EB60
:101CA00007010CFB0EF7B0EB074072EB17420CFB81
:101CB00008F734BFA2EB0742B2EB074261EB1741D2
:101CC00015EB1C154FEA813141EA92414FEA82320D
:101CD00042EA90424FEA80304FEA0C7644F1000429
:101CE00048EA03434EEA0B484FF0000EB2EB080CF3
:101CF00071EB030724BF624639464EEB0E0E4FF0E0
:101D0000000B0018524149414BEB0B0BB2EB080C96
:101D100071EB03077BF1000B24BF624639464EEBA3
:101D20000E0E4FF0000B0018524149414BEB0B0BCC
:101D3000B2EB080C71EB03077BF1000B24BF62468A
:101D400039464EEB0E0E51EA020718BF46F0010667
:101D500016EB0E7655F1000254F1000103D5BDE8F3
:101D60008901BDE80088BDE88901BDE80048B619D1
:101D7000524141EB0101A3F10103704780807F7E56
:101D80007D7C7B7A797877767675747372717170F1
:101D90006F6E6E6D6C6C6B6A6A69686867666665A3
:101DA0006464636362616160605F5F5E5E5D5D5C31
:101DB0005C5B5B5A5A5959585857575656555555A2
:101DC0005454535352525251515050504F4F4F4E02
:101DD0004E4D4D4D4C4C4C4B4B4B4A4A4A49494950
:101DE0004848484747474746464645454544444492
:101DF000444343434342424242414141002B9C46BB
:101E000030D477002BD01CB54FEA370703B44FF01E
:101E100010004FF01001BAF1000F06D0BCF1000F16
:101E2000DCBF40F0080040F008014FF000000FBC9C
:101E3000BDE810400BF1010BBBF1010F08BF5FEAD9
:101E4000170722BF12F1010211F101014FF0004109
:101E500043F1000300F0004043EA00007047F9D36B
:101E60005708D0E746EA064613F1400F4FEA1646F8
:101E70001FDD13F1200FDFBF16430A460021203378
:101E80005B42BED0C3F1200746EA064602FA07F7D6
:101E90004FEA164646EA0706C3F1200722FA03F284
:101EA00001FA07F721FA03F14FF0000342EA0702B3
:101EB000A7E746EA020646EA06464FEA164646EA1B
:101EC0000106BCBF46EA0646360C4FF000034FF051
:101ED00000024FF0000194E72DE9804C9A469346AA
:101EE00070B491E8380007C831EA400C48BF34EAC2
:101EF000430C03D5FFF7E6FDFFF780FFF0BCBDE81C
:101F0000008C2DE9804C9A46934670B491E83800D5
:101F100007C810F0804F08BF13F0804F03D100F0C6
:101F200005F8FFF76BFFF0BCBDE8008C20F07F47A1
:101F300080EA030023F07F4C07EB0C03A3F57C53EE
:101F400000F00040A3F1FE0392F0000F00F0B38018
:101F500095F0000F00F077802DE901494FEA11401C
:101F60004FEA144621EA004800FB06FC24EA064733
:101F700008FB06F607FB08F800FB07F718EB064816
:101F80004CEB164C4FEA124B18EB07484FEA15463C
:101F90004CEB174022EA0B4E0BFB06FC25EA0647EA
:101FA0000EFB06F607FB0EFE0BFB07F71EEB064EBD
:101FB0004CEB164C4FF000061EEB074E4CEB174B4C
:101FC00018EB0B0840F1000018EB0E0B58EB000863
:101FD00040F100008F1A4FF000013CBFC943661B5F
:101FE00014BFB5EB040C00213CBFC943F61B4FEAFC
:101FF00017444EEA8E0E27EA04454FEA1C4704FBBD
:1020000007622CEA074C05FB07F70CFB05F604FBFF
:102010000CFC16EB074642EB174216EB0C4642EB64
:102020001C421BEB060658EB0202414146EA9E06A3
:1020300001D5BDE80189B619524141EB0101A3F177
:102040000103BDE801894FEA14454FEA114724EA2C
:10205000054621EA074C05FB07F406FB07F70CFBD6
:1020600006F105FB0CFC11EB074144EB17444FEA6A
:10207000124711EB0C4144EB1C4422EA074C05FBD0
:1020800007F206FB07F70CFB06F605FB0CFC16EB4C
:10209000074642EB174216EB0C4642EB1C456A180A
:1020A00054F1000148BF7047B619524141EB01019C
:1020B000A3F10103704795F0000F37D04FEA1142AA
:1020C0004FEA144721EA024624EA074C02FB07F1D3
:1020D00006FB07F70CFB06F402FB0CFC14EB0744B1
:1020E00041EB17414FEA154714EB0C4441EB1C41FF
:1020F00025EA074C02FB07F506FB07F70CFB06F683
:1021000002FB0CFC16EB074645EB174516EB0C469D
:1021100045EB1C42121951F1000148BF7047B61936
:10212000524141EB0101A3F1010370474FEA14450D
:102130004FEA114724EA054621EA074C05FB07F15F
:1021400006FB07F70CFB06F24FF0000605FB0CFC44
:1021500012EB074241EB174112EB0C4251EB1C41D1
:1021600048BF7047921841EB0101A3F1010370478A
:10217000FEE7704770B53A4C064601202070642097
:1021800006F039FA0025092E68D2DFE806F0670567
:10219000111D2935414D590031480121113004F0FC
:1021A000CBFDC82006F027FA2D480121193052E056
:1021B0002B480121313004F0BFFDC82006F01BFA86
:1021C00027480121393046E025480121513004F0EB
:1021D000B3FDC82006F00FFA2148012159303AE03A
:1021E0001F480121713004F0A7FDC82006F003FA52
:1021F0001B48012179302EE019480121913004F06B
:102200009BFDC82006F0F7F915480121993022E01E
:1022100013480121B13004F08FFDC82006F0EBF91E
:102220000F480121B93016E00D480121D13004F0EA
:1022300083FDC82006F0DFF909480121D9300AE002
:1022400007480121F13004F077FDC82006F0D3F9EA
:1022500003480121F93004F06FFD257070BD0000C6
:102260000000002070B53A4C064601202070642022
:1022700006F0C1F90025092E68D2DFE806F06705EF
:10228000111D2935414D590031480121401C04F0F0
:1022900053FD642006F0AFF92D480121093052E0CA
:1022A0002B480121213004F047FD642006F0A3F9FA
:1022B00027480121293046E025480121413004F01A
:1022C0003BFD642006F097F92148012149303AE0AE
:1022D0001F480121613004F02FFD642006F08BF9C6
:1022E0001B48012169302EE019480121813004F09A
:1022F00023FD642006F07FF915480121893022E092
:1023000013480121A13004F017FD642006F073F991
:102310000F480121A93016E00D480121C13004F019
:102320000BFD642006F067F909480121C9300AE075
:1023300007480121E13004F0FFFC642006F05BF95E
:1023400003480121E93004F0F7FC257070BD00005E
:102350000000002072B6FEE71FB50E49002201F111
:10236000500001F003FE0B4800220B49503001F0F1
:10237000B5FD0848847843780278074881788DE86D
:102380001E004378C278034804A17030FEF7EEF8CF
:102390001FBD00003C0400202C01002032302564C9
:1023A0002F253032642F2530326420253032643AB4
:1023B000253032643A2530326400000070B505F0F3
:1023C000D5FF04460AA005F0D9FF02460BA120461E
:1023D00005F09CFF204606F053F8054604F0C4FCC7
:1023E000204605F0D9FF2846BDE87040FEF713B837
:1023F0004765744E657454696D6500004F70657271
:102400006174696E670000002DE9F0410446876D34
:1024100000F0E6F9064694F835000025022806D0BB
:102420008020606584F834500120BDE8F081206888
:10243000016821F0160101602068416921F08001E6
:102440004161206C08B9A06C20B12068016821F0BE
:10245000080101602068016821F0010101600CE0C1
:1024600000F0BEF9801B052807D9202060650320F5
:1024700084F8350084F83450D7E720680068C00736
:10248000EED194F85C103F208840B860012084F8B9
:10249000350084F834500020C7E790F83510022941
:1024A00003D08021416501207047052180F8351057
:1024B0000068016821F0010101600020704790F878
:1024C000350070472DE9F84FDFF848B20D46044655
:1024D000584512D0904884420FD0904884420CD086
:1024E0008F48844209D08F48844206D08E48844267
:1024F00003D0AC218DA005F0FAFE28680104090C78
:1025000001D0000C03D0AD2188A005F0F0FE686872
:10251000F8B101281DD011281BD0022819D012288B
:1025200017D0B0F5881F14D0B0F5041F11D0B0F546
:10253000441F0ED0B0F5901F0BD0B0F5081F08D087
:10254000B0F5481F05D0032803D0AE2177A005F0D1
:10255000CEFE00264FF0010A4FF003090AFA06F0FA
:102560002F688046074047457ED1287900F0030058
:10257000012801D002281DD1E86848B1012807D000
:10258000022805D0032803D0C02168A005F0AFFEC3
:10259000A068720009FA02F18843E968914001439A
:1025A000A1606168287921EA0801C0F30010B040F9
:1025B000084360602879C043800712D0A86838B10A
:1025C000012805D0022803D0D12158A005F08FFEA4
:1025D000E068720009FA02F18843A968914001435A
:1025E000E160287900F00300022828D12869C8B1E9
:1025F000092817D0012815D0022813D0042811D09B
:1026000005280FD006280DD007280BD0082809D0A0
:102610000A2807D00C2805D00F2803D0DE2143A0BC
:1026200005F065FEF00804EB8002106A7107CB0E1E
:102630000F2199408843296999400143116221681B
:10264000720009FA02F08143287900F003009040FB
:1026500008432060686810F4403F55D04248016844
:1026600041F48041016000E04EE0006826F0030183
:1026700000F4804000903D480A18D2F80808B107DD
:102680000B0F0F21994088435C4501D1002114E0D4
:1026900021498C4201D101210FE020498C4201D116
:1026A00002210AE01E498C4201D1032105E01D49A7
:1026B0008C4201D1042100E0072199400143C2F876
:1026C00008182B4908686A68B843D20200D5384315
:1026D00008602749091D08686A68B843920200D556
:1026E000384308602249091F08686A68B8439203A2
:1026F00000D5384308601E49083908686A68B8433D
:10270000D20300D538430860761C102EFFF426AFA4
:10271000BDE8F88F000002400004024000080240BB
:10272000000C024000100240001C02402E2E2F44DC
:102730007269766572732F53544D3332463478780C
:102740005F48414C5F4472697665722F5372632F04
:1027500073746D3332663478785F68616C5F67706C
:10276000696F2E63000000004438024000300140D1
:10277000083C014070B515460C00064604D140F2F5
:102780009D1108A005F0B3FD45B1012D04D04FF413
:10279000CF7104A005F0ABFDB46170BD2004B06141
:1027A00070BD00002E2E2F447269766572732F5310
:1027B000544D3332463478785F48414C5F447269F7
:1027C0007665722F5372632F73746D33326634786B
:1027D000785F68616C5F6770696F2E63000000004E
:1027E00001488068704700007801002070477047FA
:1027F0002DE9F041016804464A694E6890F83E00B0
:102800000025D743FA0506D4F243D20503D46FF46A
:10281000807201254A61B90508D4F143C90505D480
:1028200022686FF4007145F002055161790525D4E5
:10283000F143C90522D4638D94F83D10226B202802
:1028400008D13BB9212910D029290ED0282901D13E
:10285000212A0AD022686FF48061516145F0040595
:10286000102806D0402804D008E0204603F000F9E4
:1028700004E02068016841F400710160380508D463
:10288000F043C00505D421686FF4006045F00805E9
:102890004861002D07D0206C284320642046BDE805
:1028A000F04102F069BDBDE8F0812DE9F047026812
:1028B00000215368C66A90F83E4090F83D50102CB5
:1028C00012D0402C10D0046C002C7DD05469E4430D
:1028D000A6077AD4DE43B60577D4036C03B19169B9
:1028E000BDE8F04703F0A0B8976951694FF42A0C8E
:1028F000C9435FEAC1784FF02A4904D066452AD01F
:102900004E4528D010E0DE43B6050DD4C16A6145BE
:1029100001D1012103E0C16A494501D10821C16209
:10292000BDE8F04702F0E6BF0E0716D4DE43B60559
:1029300013D4416CC9B21161416B09B1C96B29B99A
:10294000816B002907D0C96B002904D00068416859
:1029500041F400614160BDE8F0878E0706D4DE4394
:10296000B60503D4BDE8F04702F038BFFE43526815
:1029700076074FEA02521DD4002AECDB0A0608D47F
:10298000DA43520505D4490705D5BDE8F04702F002
:10299000C9BE4907DFD4D9438905DCD4212D05D030
:1029A000402CD8D1BDE8F04702F0EABFBDE8F047BF
:1029B00002F076BE002ACEDB4A060BD4DA4352057B
:1029C00008D4490708D501E00DE00EE0BDE8F04766
:1029D00002F0ECBD4907BED4D9438905BBD4BDE89C
:1029E000F04702F075BD916970E7E10606D4D9435E
:1029F000890503D4BDE8F04703F082B82821212DD2
:102A000027D0292D25D0650655D4DD436D0552D438
:102A1000640752D590F83D30448D002C9BD012694C
:102A2000446A2270426A521C4262428D521E4285A2
:102A3000428D002A8FD12A2B8DD10268536823F44E
:102A4000806353602222026380F83D1000F0FAFA9E
:102A500081E7250623D4DD436D0520D4640720D506
:102A600090F83D30448D002CF2D0446A24781461F3
:102A7000426A521C4262428D521E4285428D002A99
:102A8000E6D1292BE4D10268536823F480635360B4
:102A90002122026380F83D1000F0D5FA5BE7610760
:102AA000D6D4D9438905D3D4418D0029D0D0416AE9
:102AB000097811610AE06107CAD4D9438905C7D4EE
:102AC000418D0029C4D01169426A1170416A491CC4
:102AD0004162418D491E41853DE7704770B5040054
:102AE0007DD08A49206888420AD08949884207D027
:102AF0008849884204D040F2C91187A005F0F7FB4D
:102B000060689349401E884204D94FF4E57182A061
:102B100005F0EDFBA0684FF4804530B1A84204D029
:102B200040F2CB117CA005F0E2FBE068800A04D003
:102B30004FF4E67178A005F0DAFB2069A84207D0CF
:102B4000B0F5404F04D040F2CD1173A005F0CFFB9B
:102B5000606930B1012804D04FF4E7716EA005F030
:102B6000C6FBA06930F0FE0004D040F2CF116AA08D
:102B700005F0BDFBE06930B1402804D04FF4E871A6
:102B800065A005F0B4FB206A30B1802804D040F283
:102B9000D11161A005F0ABFB94F83D00002520B9F0
:102BA00084F83C50204600F009FA242084F83D00C7
:102BB0002068016821F0010101602068016841F48A
:102BC000004101602068016821F40041016000F0CB
:102BD000DFFE604A6168914202D85F4901E002E08D
:102BE0005E49884201D2012070BD5D492368B0FB77
:102BF000F1F15E6826F03F060E435E606368934223
:102C000006D94FF4967359434FF47A73B1FBF3F13D
:102C10002368491C1E6A26F03F0631431962616829
:102C2000914210D84900401EB0FBF1F2521CC2F391
:102C30000B02042A01D2042022E0B0FBF1F0401C78
:102C4000C0F30B001CE0A368F3B301EBC10202EB7D
:102C50000116421EB2FBF6F2521C42F480421205EB
:102C600049D093B301EBC10202EB0111401EB0FB4E
:102C7000F1F0401CC0F30B0040F4804040F40040F1
:102C80002168CA694CF6FF739A431043C861D4E9BE
:102C9000071001432068026822F0C002114301605E
:102CA000D4E9030101432068826848F2FF339A4364
:102CB00011438160D4E9050108432168CA6822F004
:102CC000FF021043C86001E00EE016E020680168D2
:102CD00041F0010101602564202084F83D00256356
:102CE00084F83E50002070BD01EB4106421EB2FB4D
:102CF000F6F2521CB3E70120C2E701EB4101401E8E
:102D0000B0FBF1F0401CC0F30B00B7E700540040EB
:102D100000580040005C00402E2E2F4472697665FA
:102D200072732F53544D3332463478785F48414C98
:102D30005F4472697665722F5372632F73746D33BB
:102D400032663478785F68616C5F6932632E630045
:102D50007F1A0600A086010080841E0000093D0045
:102D600040420F007047704770477047704700003F
:102D70002DE9F84F0025DDE90A9A1E4617468846D8
:102D800004460095012B06D0102E04D040F6983151
:102D900032A005F0ACFA94F83D0020285CD13D4803
:102DA00046F2A8110068B0FBF1F000EBC00101EBA6
:102DB00000100090401E009006D020688069C0433B
:102DC00080070BD40098F5E744F8305F202060734B
:102DD000A573206940F0200020613DE094F83C009C
:102DE000012839D0012084F83C0020680168C90717
:102DF00003D1016841F0010101602068016821F4FC
:102E000000610160222084F83D00402084F83E00EB
:102E10002564C4F82490A4F82AA0608D20851E485B
:102E2000E062C4F84480A764E66425652068016810
:102E300041F4806101602068016841F480710160A3
:102E400084F83C50208D20B12068416841F4E06155
:102E500041600020BDE8F88F0220FBE72E2E2F44B2
:102E60007269766572732F53544D333246347878D5
:102E70005F48414C5F4472697665722F5372632FCD
:102E800073746D3332663478785F68616C5F693271
:102E9000632E6300840100200000FFFF2DE9F84F3E
:102EA0000025DDE90A9A1E46174688460446009525
:102EB000012B06D0102E04D040F643312FA005F090
:102EC00016FA94F83D00202855D13A4846F2A81148
:102ED0000068B0FBF1F000EBC00101EB00100090C6
:102EE000401E009006D020688069C04380070BD444
:102EF0000098F5E744F8305F20206073A5732069DF
:102F000040F02000206136E094F83C00012832D0E7
:102F1000012084F83C0020680168C90703D10168DA
:102F200041F0010101602068016821F40061016045
:102F3000212084F83D00402084F83E002564C4F838
:102F40002490A4F82AA0608D20851B48E062C4F874
:102F50004480A764E66425652068016841F48071B7
:102F6000016084F83C502068416841F4E0614160B0
:102F70000020BDE8F88F0220FBE700002E2E2F4432
:102F80007269766572732F53544D333246347878B4
:102F90005F48414C5F4472697665722F5372632FAC
:102FA00073746D3332663478785F68616C5F693250
:102FB000632E6300840100200000FFFF10B586B07F
:102FC000044614216846FDF706FE1B492068884226
:102FD00030D11A480021026842F002020260006803
:102FE00000F002000590C02000901220CDE9010100
:102FF000032003900420049069461148FFF762FA09
:103000000E481030016841F4001101600068002290
:1030100000F40010059005211F2000F051F91F2039
:1030200000F01CF900220521202000F049F92020A1
:1030300000F014F906B010BD0054004030380240D2
:10304000000402407047704770B5040033D0264931
:103050002068884203D0AE2124A005F048F96068BA
:1030600078B101280DD002280BD0032809D00428FC
:1030700007D0052805D0062803D0AF211BA005F0F6
:1030800036F9A068B0F5805F03D3B02117A005F032
:103090002EF921684CF6CC400860216845F2555065
:1030A0000860D4E9000141602168A0688860FFF7EA
:1030B00097FB05460DE0012070BD00BFFFF790FBB8
:1030C000401B312805D92068C068800701D0032043
:1030D00070BD2068C0688007F0D121684AF6AA2038
:1030E0000860002070BD0000003000402E2E2F44EC
:1030F0007269766572732F53544D33324634787843
:103100005F48414C5F4472697665722F5372632F3A
:1031100073746D3332663478785F68616C5F697799
:1031200064672E630000000000684AF6AA2101606F
:10313000002070470248816802781144816070471E
:10314000780100200B4810B5016841F4007101605E
:10315000016841F480610160016841F4807101609F
:10316000032000F0FDF80F2000F006F800F050F802
:10317000002010BD003C024030B50546204887B015
:103180000024016841F001010160006806A900F017
:103190000100009001A800F0DBFB0498B0B100F042
:1031A000F7FB400017494FF08042B0FBF1F11648A1
:1031B000491E026040F2E732C0E90324C0E901146D
:1031C000846101F0BFFB040003D015E000F0E0FBD8
:1031D000E8E70D4801F064FC04000DD11C2000F06C
:1031E0003DF8102D07D2002229461C2000F068F877
:1031F0000648056000E0012407B0204630BD00000D
:103200004038024040420F00680D00207C01002041
:10321000114808B5016841F480410160006800F47C
:10322000804000900C48001F016841F0805101600F
:103230000068002200F0805000900F21901E00F0E6
:103240003FF805210022084600F03AF8BDE80840A2
:10325000052000F003B800004438024010B5040017
:1032600003D5BC2107A005F042F8002C09DB04F0CF
:103270001F01012088406109890001F1E021C1F8A6
:10328000000110BD2E2E2F447269766572732F5384
:10329000544D3332463478785F48414C5F4472690C
:1032A0007665722F5372632F73746D333266347880
:1032B000785F68616C5F636F727465782E6300007D
:1032C00070B515460C460646102A03D3A82114A053
:1032D00005F00DF8102C03D3A92111A005F007F873
:1032E0001E480068C0F30223C3F107022046042AE7
:1032F00000D90422191D072901D2002300E0DB1E9A
:10330000012404FA02F1491E014099409C40641EC8
:103310002C4021433046BDE8704004F040B8000026
:103320002E2E2F447269766572732F53544D3332AB
:10333000463478785F48414C5F4472697665722FF5
:103340005372632F73746D3332663478785F6861BB
:103350006C5F636F727465782E6300000CED00E0A3
:1033600010B5044607280BD0062C09D0052C07D031
:10337000042C05D0032C03D0902108A004F0B7FF43
:10338000154904F0070208684FF6FF03184040EAA9
:103390000220124A1043086010BD00002E2E2F4458
:1033A0007269766572732F53544D33324634787890
:1033B0005F48414C5F4472697665722F5372632F88
:1033C00073746D3332663478785F68616C5F636FF5
:1033D000727465782E6300000CED00E00000FA05C1
:1033E0002DE9F84304460068401E0E2804D940F633
:1033F000EB1191A004F07BFF20684FF00109C10799
:103400004FF0000601D1400744D5E068801E052832
:1034100004D940F6F21188A004F069FFA0683238A0
:10342000B0F5BF7F04D940F6F31183A004F05FFF2D
:103430006068801E3D2804D940F6F5117EA004F096
:1034400056FFDFF83082C8F86860FFF7C9F9074611
:10345000894D04E0FFF7C4F9C01B02287ED8286814
:103460000001F7D4A068217B800140EA0170616807
:103470000843814984310860C8F86890FFF7B0F9C3
:10348000074604E0FFF7ACF9C01B0228E6D828681D
:103490000001F7D5207880077AD52069B0F5807FC4
:1034A00063D0B0F5007F60D0744988425DD0744924
:1034B00088425AD07349884257D07349884254D0C1
:1034C0007249884251D0724988424ED0714988422F
:1034D0004BD07149884248D07049884245D07049E4
:1034E000884242D06F4988423FD06F4988423CD0E1
:1034F0006E49884239D06E49884236D06D4988423B
:1035000033D06D49884230D06C4988422DD06C4907
:1035100088422AD06B49884227D06B49884224D000
:103520006A49884221D06A4988421ED06949884246
:103530001BD06949884218D06849884215D068492B
:10354000884212D0674988420FD0674988420CD020
:103550006649884209D06649884200E043E004D0C9
:1035600040F6242134A004F0C2FE434840300168F4
:1035700041F08051016000685E4D00F08050009085
:10358000286840F480702860FFF72AF9074606E0B3
:1035900040E000BFFFF724F9C01B022823D82868A9
:1035A000C005F7D5344D7035286810F4407020D030
:1035B000218A01F4407181421BD028684E4920F4D1
:1035C0004070C1F800900E6028602868C00710D0D5
:1035D000FFF706F9064641F2883707E0FFF700F9E2
:1035E000801BB84202D90320BDE8F8832868800711
:1035F000F4D521692048C1F301220830032A12D0F2
:10360000016821F4F81101602868218AC1F30B01D7
:10361000084328602078000703D53849207DC1F889
:10362000E0010020E0E70268354B22F4F81219406F
:103630000A430260E8E700002E2E2F447269766587
:1036400072732F53544D3332463478785F48414C6F
:103650005F4472697665722F5372632F73746D3392
:1036600032663478785F68616C5F7263635F657837
:103670002E630000000047420038024000030200B1
:10368000000303000003040000030500000306001C
:1036900000030700000308000003090000030A00FC
:1036A00000030B0000030C0000030D0000030E00DC
:1036B00000030F00000310000003110000031200BC
:1036C000000313000003140000031500000316009C
:1036D00000031700000318000003190000031A007C
:1036E00000031B0000031C0000031D0000031E005C
:1036F00000031F0000700040400E47420010474288
:10370000FFFCFF0F2DE9F0470E4604007DD0206836
:10371000401E0E2804D940F25A217AA004F0E7FD99
:1037200096B1012E10D0022E0ED0032E0CD0042EF6
:103730000AD0052E08D0062E06D0072E04D040F25F
:103740005B2170A004F0D3FDDFF8F081D8F8000011
:10375000F7B200F00700B04207D288F80070D8F83E
:10376000000000F00700B0424FD12068744D81077F
:1037700029D5400703D5286840F4E0502860207818
:10378000000703D5286840F460402860A068A0B115
:10379000802812D0902810D0A0280ED0B0280CD0AD
:1037A000C0280AD0D02808D0E02806D0F02804D0BD
:1037B00040F27E2153A004F09AFD2868A16820F011
:1037C000F000084328602078C00743D0DFF87091EC
:1037D0006068A9F1080988B1012822D0022824D004
:1037E000032822D040F2852146A004F080FD6068C5
:1037F000012816D0022818D0032816D0D9F80000C6
:103800008007002833DA286800E030E0616820F0A3
:10381000030008432860FEF7E3FF814641F2883A3F
:1038200011E0D9F800008003EBE7D9F8000080012F
:10383000E7E700BFFEF7D4FFA0EB0901514502D92D
:103840000320BDE8F0872868616800F00C00B0EB49
:10385000810FEFD1D8F80010404601F00701B142C6
:1038600007D90770006800F00700B04201D00120BE
:10387000E7E720784FF4805640074FF4A0574FF405
:10388000C0584FF4E05914D5E06860B1B0420AD096
:10389000B84208D0404506D0484504D040F2C32184
:1038A00018A004F024FD2868E16820F4E0500843E3
:1038B00028602078000715D5206960B1B0420AD091
:1038C000B84208D0404506D0484504D040F2CA214D
:1038D0000CA004F00CFD2868216920F4604040EA47
:1038E000C100286000F074F82968164AC1F303117A
:1038F000515CC8401449086014480068FFF73CFC5C
:1039000000209EE72E2E2F447269766572732F5326
:10391000544D3332463478785F48414C5F44726985
:103920007665722F5372632F73746D3332663478F9
:10393000785F68616C5F7263632E6300003C0240D5
:1039400008380240A4BF0008840100207C01002048
:103950000F2202600C4A136803F0030343601368EC
:1039600003F0F0038360136803F4E053C36012684C
:103970004FF4E05303EAD20202610448006800F009
:10398000070008607047000008380240003C024011
:103990000448054900680968044AC1F38221515C62
:1039A000C84070478401002008380240B4BF0008B6
:1039B0000448054900680968044AC1F34231515C72
:1039C000C84070478401002008380240B4BF000896
:1039D000154810B5006810F00C02144813D01449B3
:1039E000042A0FD0082A0ED10F4C241F2268236806
:1039F00002F03F025B0207D52068C0F38810A0FBED
:103A0000010106E0084610BD2168C1F38811A1FB41
:103A100000010023FCF726FD2168C1F30141491C88
:103A20004900B0FBF1F010BD083802400024F4005A
:103A300040787D012DE9F84F04007DD020680F28E3
:103A400003D9E621F7A004F052FC2078DFF80C94AB
:103A5000C007A9F1040555D060684FF480364FF4D3
:103A6000A02738B1B04205D0B84203D0EB21EDA079
:103A700004F03DFCF948001D0168C1F381010129F2
:103A800008D00068C0F3810002280AD1D9F80000EC
:103A9000400206D52868800334D560680028CCD061
:103AA00030E06068B04203D1286840F480300CE018
:103AB000B842286803D140F480202860F4E720F45D
:103AC00080302860286820F480202860606860B119
:103AD000FEF786FE064604E0FEF782FE801B6428A1
:103AE0007ED828688003F7D50CE0FEF779FE0646FD
:103AF00005E000BFFEF774FE801B6428F0D828683C
:103B00008003F7D42078DFF8588380074FF0000A4D
:103B100056D5E06830B1012804D040F21D11C1A093
:103B200004F0E5FB20691F2804D94FF48F71BDA074
:103B300004F0DDFBC94800E092E0001D016811F0CF
:103B40000C0F08D00068C0F38100022810D1D9F80A
:103B5000000040020CD42868800702D5E0680128E4
:103B60007ED12868216920F0F80040EAC10017E002
:103B7000E068B8B10120C8F80000FEF731FE064643
:103B800005E000BFFEF72CFE801B0228A8D828689D
:103B90008007F7D5286820F0F801206941EAC000C5
:103BA00028600DE0C8F800A0FEF71AFE064604E003
:103BB000FEF716FE801B022892D828688007F7D4EB
:103BC000207800072ED5A54EA64F60697036D0B17B
:103BD000012808D04FF4AF7192A004F088FB00E0F8
:103BE0004BE1606978B101203860FEF7F9FD0746C6
:103BF00005E000BFFEF7F4FDC01B0228C6D8306800
:103C00008007F7D50EE0C7F800A0FEF7E9FD0746EC
:103C100005E000BFFEF7E4FDC01B0228B6D83068FF
:103C20008007F7D42078400776D5A068002740B1F8
:103C3000012806D0052804D04FF4C57179A004F0FE
:103C400056FBDFF818B20BF13C0BDBF80000C000AC
:103C50000DD4DBF8001041F08051CBF8001000E0EB
:103C600038E1DBF80000012700F0805000907E4E24
:103C70003068C00511D4306840F480703060FEF7C1
:103C8000AFFD009006E000BFFEF7AAFD0099401AC4
:103C9000022891D83068C005F6D5704EA0686C3601
:103CA00001280FD00528306810D020F001003060C6
:103CB000306820F004003060A068B8B1FEF790FDD5
:103CC00000900FE0306840F00100F4E740F004009D
:103CD0003060F7E7FEF784FD0099411A41F2883021
:103CE00081428BD830688007F4D50EE0FEF778FD6E
:103CF000009007E0FEF774FD0099411A41F2883008
:103D000081428BD830688007F4D42FB1DBF80010E3
:103D100021F08051CBF80010A069002876D001284E
:103D200009D0022807D040F2CD113EA004F0DFFAFE
:103D3000A0690028F2D04948001D0068C0F3810046
:103D40000228A0696DD0022805D0C8F860A0FEF74F
:103D500047FD044694E0E06938B1B0F5800F04D027
:103D60004FF4EB712FA004F0C2FA206A801E3D28A8
:103D700004D940F2D7112BA004F0B9FA606A3238A6
:103D8000B0F5BF7F04D94FF4EC7126A004F0AFFA70
:103D9000A06A02280AD0042808D0062806D00828DD
:103DA00004D040F2D9111FA004F0A1FAE06A801EED
:103DB0000D2804D94FF4ED711AA004F098FA474683
:103DC000C8F860A0FEF70CFD064604E0FEF708FD0B
:103DD000801B022851D828688001F7D4D4E9070154
:103DE0000843A16A214A490802EB0141626A41EA9B
:103DF0008211084394F82C1040EA0161C9F80010C0
:103E000001203866FEF7ECFC044606E064E000BFE3
:103E1000FEF7E6FC001B02282FD828688001F7D5A2
:103E20005AE031E02E2E2F447269766572732F535B
:103E3000544D3332463478785F48414C5F44726960
:103E40007665722F5372632F73746D3332663478D4
:103E5000785F68616C5F7263632E630004380240B0
:103E600000004742800E4742007000400000FFFF04
:103E7000FEF7B6FC001B022802D90320BDE8F88F2C
:103E800028688001F4D427E00128F7D0D9F8000091
:103E9000E26900F4800191421CD1226A00F03F01E6
:103EA000914217D147F6C071626A0140B1EB821F9F
:103EB00010D1A26A4FF0FF3300F4403103EB5202FD
:103EC000B1EB024F06D194F82C1000F07060B0EB0B
:103ED000016F01D00120D1E70020CFE770B51500B8
:103EE0000C46064606D0012D04D040F2B73110A092
:103EF00004F0FDF9306841681B480140080CE0708F
:103F0000C1F30422627001F03F02A270C1F342319A
:103F1000217055B902F03AF9E070607802F036F994
:103F20006070A07802F032F9A070002070BD00002F
:103F30002E2E2F447269766572732F53544D33328F
:103F4000463478785F48414C5F4472697665722FD9
:103F50005372632F73746D3332663478785F68619F
:103F60006C5F7274632E63003FFFFF0070B5150035
:103F70000C46064606D0012D04D040F2313114A083
:103F800004F0B5F93068806A606030680069C0F399
:103F90000E00A060306801681B480140C1F3054075
:103FA0002070C1F30622627001F07F02A270890DB9
:103FB000E17055B902F0EAF82070607802F0E6F896
:103FC0006070A07802F0E2F8A070002070BD0000E0
:103FD0002E2E2F447269766572732F53544D3332EF
:103FE000463478785F48414C5F4472697665722F39
:103FF0005372632F73746D3332663478785F6861FF
:104000006C5F7274632E63007F7F7F0010B50400C5
:1040100049D047492068884204D04FF4827145A0B6
:1040200004F065F96068402805D020B140F2051120
:1040300040A004F05CF9A0687F2804D94FF4837194
:104040003CA004F054F9E068B0F5004F04D340F20E
:10405000071138A004F04BF9206968B1B0F5001FD2
:104060000AD0B0F5800F07D0B0F5C00F04D04FF4E0
:10407000847130A004F03BF9606938B1B0F5801F5D
:1040800004D040F209112BA004F031F9A06938B135
:10409000B0F5802F04D04FF4857126A004F027F9E5
:1040A000607F10B106E0012010BD0020207720467F
:1040B00000F05EF8022060772068C168C943C90635
:1040C00032D5CA214162216853204862204602F05D
:1040D00071F820BB20688168244A11408160216802
:1040E000886862681043D4E904231A431043886047
:1040F0002168E068086120680169228941EA02417B
:104100000161204602F07AF848B921680A6C22F46D
:1041100080220A6421680A6CA3691A430A6422682F
:10412000FF21516208B110BD00200121617710BD4F
:10413000002800402E2E2F447269766572732F532B
:10414000544D3332463478785F48414C5F4472694D
:104150007665722F5372632F73746D3332663478C1
:10416000785F68616C5F7274632E6300BFFF8FFFBE
:1041700010B586B0044618216846FCF72CFD0949A5
:10418000206888420CD1022000900002049068460A
:10419000FFF726F908B1FEF7DDF8034901200860B2
:1041A00006B010BD002800403C0E47422DE9F0410A
:1041B00016000C46054606D0012E04D040F25F31B1
:1041C00050A004F094F8287F012805D001272F770C
:1041D000022068771EB109E00220BDE8F081607816
:1041E000C10603D500F0EF000A3060702078012886
:1041F00010D002280ED003280CD004280AD005289D
:1042000008D0062806D0072804D040F26B313DA024
:1042100004F06DF8E078002E3AD001F0B7FF632883
:1042200004D940F27A3137A004F061F8607801F0E7
:10423000ADFF20B1607801F0A9FF0C2804D940F24D
:104240007B3130A004F053F8A07801F09FFF20B13B
:10425000A07801F09BFF1F2804D94FF45F7129A0BB
:1042600004F045F8A078E17840EA014660782178CA
:10427000000240EA413006432968CA2048622968A2
:1042800053204862284601F095FF00282AD032E0EA
:10429000632804D940F26F311AA004F028F860783E
:1042A000401E0B2804D94FF45C7116A004F01FF8CF
:1042B000A078401E1E2804D940F2713111A004F0EC
:1042C00016F8E07801F06BFF0204607801F067FFF8
:1042D00042EA0022A07801F062FF0243207842EA1D
:1042E0004036C9E71548064028684660284601F070
:1042F00085FF00B96F772A68FF2151620021297775
:104300006BE700002E2E2F447269766572732F536F
:10431000544D3332463478785F48414C5F4472697B
:104320007665722F5372632F73746D3332663478EF
:10433000785F68616C5F7274632E63003FFFFF00FB
:104340002DE9F04116000C46054606D0012E04D09A
:104350004FF4307166A003F0CAFFE068B0F5003F8B
:1043600008D0B0F5803F05D020B140F2C12160A057
:1043700003F0BDFF206938B1B0F5802F04D040F2C2
:10438000C2215BA003F0B3FF287F012823D04FF0A8
:10439000010885F81C80022068772868002780685B
:1043A0004FEA4060D6B1002854DA207801F0EEFEE2
:1043B00020B1207801F0EAFE0C2804D940F2E12176
:1043C0004BA003F094FFE07800284ED001284CD099
:1043D00040F2E22146E00220BDE8F08100280FDA39
:1043E0002078401E0B2804D940F2CD2140A003F0D4
:1043F0007EFFE07868B101280BD040F2CE2105E0C5
:10440000E7702078172804D940F2D32138A003F0B0
:104410006EFF60783B2804D940F2D52134A003F028
:1044200066FFA0783B2804D940F2D62130A003F0E3
:104430005EFF207801F0B3FE0204607801F0AFFE69
:1044400042EA0022A07801F0AAFE0243E07842EAA4
:10445000805628E0E770207801F098FE172804D9EC
:1044600040F2E72122A003F042FF607801F08EFEC7
:104470003B2804D940F2E9211DA003F038FFA078C1
:1044800001F084FE3B2804D940F2EA2118A003F091
:104490002EFFA078217840EA01466078E17800029A
:1044A00040EA815006432968CA204862296853209F
:1044B0004862284601F07EFEA8B91B4806402868DD
:1044C00006602868816821F480218160D4E90301B5
:1044D000084329688A6810438860284601F08EFEE8
:1044E00008B985F81D802A68FF2151622F7773E78C
:1044F0002E2E2F447269766572732F53544D3332CA
:10450000463478785F48414C5F4472697665722F13
:104510005372632F73746D3332663478785F6861D9
:104520006C5F7274632E63007F7F7F0070B50446FA
:104530000B482168C860FEF753F905464FF47A76B8
:1045400007E000BFFEF74CF9401BB04201D9032041
:1045500070BD2068C0688006F4D5002070BD0000E2
:104560005F3F01007047000038B5016804464A68A3
:104570008868C043430606D5C30704D1D3435B060E
:1045800001D4216C05E0830708D4D3431B0605D46E
:10459000616C01B02046BDE830400847830603D572
:1045A000430601D5C30551D4D3439B064ED44306DD
:1045B0000AD494F85130032B49D0636D43F00403BF
:1045C0006365CB688B680093830609D4636D43F001
:1045D000010363658B6800930B6823F040030B6055
:1045E000C00506D4606D40F00800606520688068F2
:1045F0000090606D002829D02068416821F0E0011A
:104600004160012084F85100900701D4D00722D0E6
:104610002068416821F003014160114DE06C40B118
:104620000565E06CFDF739FF18B1606D40F04000A2
:104630006065A06C002809D00565A06CFDF72DFF12
:10464000002803D0606D40F04000606538BDC86848
:104650008868009038BD2046FFF784FF38BD000011
:104660006D63000870B504007ED0834920688842DD
:1046700010D0824988420DD0814988420AD08149B0
:10468000884207D08049884204D04FF4A0717FA0AF
:1046900003F02DFE60684FF4827630B1B04204D052
:1046A00040F2411179A003F022FEA06850B1B0F5AC
:1046B000806F07D0B0F5004F04D04FF4A17173A004
:1046C00003F015FEE068B0F5006F05D020B140F2B0
:1046D00043116EA003F00BFEA069B0F5007F08D077
:1046E00038B1B0F5802F04D04FF4A27167A003F069
:1046F000FEFDE06990B1082810D010280ED01828CF
:104700000CD020280AD0282808D0302806D03828F5
:1047100004D040F245115DA003F0E9FD206A30B1FC
:10472000802804D04FF4A37158A003F0E0FD606A24
:10473000002548B3102806D040F2471153A003F0DB
:10474000D6FD606A00B3E069A0B1082812D0102835
:1047500010D018280ED020280CD028280AD03028B5
:1047600008D0382806D000E00CE040F2591147A0EC
:1047700003F0BDFD25616561A56294F85100002834
:1047800030D034E0012070BD206930B1022804D05F
:104790004FF4A5713DA003F0AAFD606930B1012876
:1047A00004D040F24B1139A003F0A1FD6068B04283
:1047B00016D1E0690028DFD00828DDD01028DBD032
:1047C0001828D9D02028D7D02828D5D03028D3D021
:1047D0003828D1D040F24F112CA003F088FDCBE750
:1047E000E561C9E784F85050204600F06BF80220DC
:1047F00084F851002068016821F040010160A08820
:10480000218900F4827001F404410843A18901F474
:1048100000610843217C01F002010843217D01F081
:1048200001010843218B01F400710843217F01F04D
:104830003801084394F8201001F080010843218DCD
:1048400001F40051084321680860A069042101EACD
:10485000104094F8241001F01001084321684860CA
:104860002068C16921F40061C1616565012084F897
:104870005100002070BD00000030014000380040B1
:10488000003C004000340140005001402E2E2F44D7
:104890007269766572732F53544D3332463478788B
:1048A0005F48414C5F4472697665722F5372632F83
:1048B00073746D3332663478785F68616C5F7370DF
:1048C000692E630010B586B0044614216846FCF7D3
:1048D00082F918492068884229D1174800210268C6
:1048E00042F480420260006800F480400590124863
:1048F0001038026842F002020260006800F0020014
:1049000005904FF4444000900220CDE901010320BE
:1049100003900520049069460848FDF7D3FD002266
:1049200005212420FEF7CCFC2420FEF797FC06B0DE
:1049300010BD000000380040403802400004024032
:104940007047704770B5040045D03F4920688E031A
:104950003E4D884217D0B04215D03D49884212D012
:104960003C4988420FD0A8420DD03B4988420AD02A
:104970003A49884207D03A49884204D040F213119C
:1049800038A003F0B4FCA06860B110280AD0202839
:1049900008D0402806D0602804D04FF48A7131A096
:1049A00003F0A5FC206950B1B0F5807F07D0B0F5C9
:1049B000007F04D040F215112AA003F098FC206873
:1049C000B0420AD0A84208D0E0684FF6FE71401EFF
:1049D000884209D903E0012070BDE06820B94FF496
:1049E0008B7120A003F083FCA06930B1802804D033
:1049F00040F217111BA003F07AFC94F83D0028B98F
:104A0000002084F83C00204600F048F8022084F89A
:104A10003D00211D206802F04BF8012084F846007B
:104A200084F83E0084F83F0084F8400084F8410098
:104A300084F8420084F8430084F8440084F8450078
:104A400084F83D00002070BD00000140000C0040D3
:104A500000040040000800400040014000440140C4
:104A6000004801402E2E2F447269766572732F53D1
:104A7000544D3332463478785F48414C5F44726914
:104A80007665722F5372632F73746D333266347888
:104A9000785F68616C5F74696D2E63007047000019
:104AA0002DE9F04707460068234C244D244EDFF8DB
:104AB0009480DFF894904FF0804AA04214D0504583
:104AC00012D0A84210D0B0420ED040450CD048457C
:104AD0000AD01E49884207D01D49884204D04FF4AD
:104AE000E8711CA003F003FC97F83D00012802D0F8
:104AF0000120BDE8F087022087F83D003868C168D2
:104B000041F00101C1603868A04209D0504507D08A
:104B1000A84205D0B04203D0404501D0484504D159
:104B2000816801F00701062903D0016841F0010105
:104B300001600020DDE700000000014000040040AB
:104B400000080040000C00400040014000440140CB
:104B5000004801402E2E2F447269766572732F53E0
:104B6000544D3332463478785F48414C5F44726923
:104B70007665722F5372632F73746D333266347897
:104B8000785F68616C5F74696D2E630070472DE912
:104B9000F04104460068C66805694FF00007A907A0
:104BA00013D5B10711D5F91E0161012020772068C6
:104BB00080698007204602D0FFF7E8FF04E000F09C
:104BC0007EF8204600F07CF82777680716D5700736
:104BD00014D521686FF00400086102202077206856
:104BE000806910F4407F204602D0FFF7CFFF04E039
:104BF00000F065F8204600F063F82777280715D500
:104C0000300713D521686FF0080008610420207771
:104C10002068C0698007204602D0FFF7B7FF04E094
:104C200000F04DF8204600F04BF82777E80616D53F
:104C3000F00614D521686FF0100008610820207775
:104C40002068C06910F4407F204602D0FFF79EFF25
:104C500004E000F034F8204600F032F82777E80747
:104C600008D0F00706D021686FF0010008612046E7
:104C700000F027F8280608D5300606D521686FF021
:104C8000800008612046FFF75BFE680608D57006C5
:104C900006D521686FF040000861204600F018F842
:104CA000A8060AD5B00608D521686FF02000086173
:104CB0002046BDE8F041FFF744BEBDE8F0817047F3
:104CC00070470068B0F1804F01D1FEF733BA7047EA
:104CD0007047704770470000F8B5016804460868DF
:104CE000CA684B6910F00F0F4FF0000559D003F060
:104CF000010602F49077374365D0C10705D0D1058E
:104D000003D5616C41F001016164410705D5D90704
:104D100003D0616C41F002016164810705D5D907B8
:104D200003D0616C41F004016164010707D502F012
:104D30002001314303D0616C41F008016164616C72
:104D400000293AD0800604D5900602D5204601F00D
:104D500092FF20684069616CC0F38010090700D49D
:104D600060B3204601F060FF20684069400621D50D
:104D70002068143050E8001F21F0400140E8001284
:104D8000002AF5D1E06BA8B16E490165E06BFDF733
:104D900084FB002811D0E06B016D01B0BDE8F0404C
:104DA000084783060FD593060DD52046BDE8F84089
:104DB00001F061BF2046FFF78DFFF8BD2046FFF7E9
:104DC00089FF6564F8BD266B2023012E7DD1C606C0
:104DD0007BD5D60679D508684868009048694FF0B9
:104DE0000206400641D5E16B086840680004000CEB
:104DF000E8D0A28D8242E5D9E085C869B0F5807F10
:104E00002DD020680C3050E8001F21F4807140E85C
:104E10000012002AF5D12068143050E8001F21F05C
:104E2000010140E80012002AF5D12068143050E852
:104E3000001F21F0400140E80012002AF5D184F85B
:104E40004230256320680C3050E8001F21F010012B
:104E500040E80012002AF5D1E06BFDF7D5FA666351
:104E6000A08DE18D401A81B22AE0A08DE18D401A1B
:104E700081B2E08D0028A5D00029A3D022680C3291
:104E800052E8000F20F4907042E80007002FF5D19F
:104E90002068143050E8002F22F0010240E800277B
:104EA000002FF5D184F84230256320680C3050E89B
:104EB000002F22F0100240E80023002BF5D166639A
:104EC0002046FFF706FFF8BDFFE705062BD51506C0
:104ED00029D594F841002128F5D1A068B0F5805F6C
:104EE00001D12069B0B1206A411C2162216800789B
:104EF0004860E08C401E0004000CE084E3D1206890
:104F0000C16821F08001C1602068C16841F04001A2
:104F1000C160D8E7206A0088C0F308004860206AB2
:104F2000801C2062E5E74006CDD55006CBD5CA6887
:104F3000204622F04002CA6084F8413000F0A7F910
:104F4000C1E70000196C000870B5040020D0A0690A
:104F500036490028364A374B20681BD088420AD091
:104F6000904208D0984206D040F2731132A003F06C
:104F7000BEF9A069C8B1A069B0F5807F15D0B0F5C1
:104F8000007F12D0B0F5407F0FD04FF4BA7109E026
:104F9000012070BD884208D0904206D0984204D0CB
:104FA0004FF4BC7124A003F0A2F9A06838B1B0F5A9
:104FB000805F04D04FF4BD711FA003F098F9E06941
:104FC00038B1B0F5004F04D040F27B111AA003F0C5
:104FD0008EF994F84100002520B984F8405020460D
:104FE00000F048F8242084F841002068C16821F4CA
:104FF0000051C160204601F0C9FE2068016921F41A
:10500000904101612068416921F02A0141612068D5
:10501000C16841F40051C1606564202084F84100FA
:1050200084F842006563002070BD0000001001405C
:1050300000440040001401402E2E2F447269766512
:1050400072732F53544D3332463478785F48414C55
:105050005F4472697665722F5372632F73746D3378
:1050600032663478785F68616C5F756172742E6344
:1050700000000000F0B587B0044614216846FBF735
:10508000AAFD2A49284F26680025284A14390223F8
:1050900003242748BE421FD1166846F0100616604A
:1050A000126802F0100205920A6842F001020A60DA
:1050B000096801F00101059161028DE82A000721CC
:1050C000CDE903416946FDF7FDF9002205212520C0
:1050D000FEF7F6F8252022E0164FBE4221D11668D1
:1050E00046F020061660126802F0200205920A6857
:1050F00042F001020A60096801F0010105914FF4D4
:10510000C0518DE82A000821CDE903416946FDF729
:10511000D9F9002205214720FEF7D2F84720FEF7F3
:105120009DF807B0F0BD0000001001404438024077
:10513000000002400014014090F84230202B01D0C2
:105140000220704721B11AB10023036301F0EEBEC3
:10515000012070472DE9F0410746006837490026D5
:10516000374C884240D1374D2078A1782954401CD3
:10517000C1B221702878022802D0012803D022E091
:10518000082926D21FE035291DD333212D4803F0ED
:10519000B1F9B5F8331088421BD100202A4A0146E4
:1051A00000EB400305EB430393F807C002F801C08E
:1051B000491CC9B21B7A5354491C401CC0B2C9B225
:1051C0000828EDD305E0072908D3012806D00228D6
:1051D00004D037211B48FBF7DCFC2670184901225C
:1051E000891C1A48FFF7A8FF19493868884222D15C
:1051F000144861783730E2784254491CCAB2627070
:1052000001787B290ED1104410F8010C7D280AD1B9
:105210000C49373101F58070FBF744FC0D480068FC
:1052200005F002FF6670BDE8F04105490122C91C86
:105230000948FFF781BFBDE8F08100000010014080
:10524000280100200402002008050020D80C0020BE
:105250000014014054010020200D002090F841303E
:10526000202B01D00220704779B172B10162828493
:10527000C28400214164212180F841100068C16886
:1052800041F08001C16000207047012070477047E5
:10529000FEE700000148FDF7ABBA0000000C00205B
:1052A0000148FDF702BB0000000C002038B5806B00
:1052B000002190F83D202B4B46F2A8141B68B3FB4D
:1052C000F4F3C3EBC30303EB830300933BB15B1E17
:1052D000009303681B689B0505D5009BF6E7036CEC
:1052E00043F020030364436B03B1D963836B03B1C1
:1052F000D96303681C6824F480641C604185436B97
:1053000003B11965836B03B1196503681C6824F048
:1053100001041C6090F83D402023602C0BD0282411
:1053200034EA02020FD080F83D3080F83E1000BF12
:10533000FDF7D3FB38BD80F83D3080F83E100164A6
:10534000FDF754FA38BD0268136843F00103136097
:105350000268136843F480631360016380F83D4082
:10536000E6E700008401002000684169C94309069E
:1053700001D400210161704770B5044690F83D00EA
:1053800094F83E10102901D0402906D1222804D1DA
:1053900021680A6822F400620A60282131EA0002CA
:1053A0004FF000054FF0200626D021684968090516
:1053B00005D4602803D084F83D6084F83E5025630E
:1053C00020684168090537D5416821F400614160D2
:1053D000606B90F835203C49012A11D00165606B63
:1053E000FDF75BF838B32068016821F00101016026
:1053F00084F83D60606B1CE0256384F83D10DFE7B6
:10540000A06B0165A06BFDF748F8A0B12068416969
:10541000C943490605D40069616A0870606A401C86
:1054200060622068016821F00101016084F83D603C
:10543000A06B016D884710E094F83D10602910D0F2
:105440004169C943490605D40069616A0870606A08
:10545000401C60622046FDF740FB206CC1071CD158
:1054600015E084F83D6025644169C943490605D4C7
:105470000069616A0870606A401C606220680168A7
:1054800021F0010101602046FDF7B0F9E5E7810751
:1054900003D4410701D4000704D52068416821F4F2
:1054A000E061416094F83D00216C49070BD5282844
:1054B00009D10648E062256384F83D6084F83E50D7
:1054C0002046FDF74FFC70BDAD5200080000FFFF05
:1054D00010B5C26A438D0168042B06D0438D032B9F
:1054E00008D0438D022B1DD012E04A6822F480625E
:1054F0004A600CE04B6823F480634B60042A06D0BA
:10550000022A04D001680A6822F480620A600168F5
:105510000969426A1170416A491C4162418D491E04
:10552000418510BD012A34D0102A32D0042A34D04B
:10553000022A32D00B6843F400730B6001680969DA
:10554000436A1970416A491C4162438D5B1E438561
:1055500003681B690B70416A491C4162418D491EF9
:10556000418501684B6823F440734B60202180F82B
:105570003D1090F83E300021402B80F83E1010D0B6
:10558000082A02D0202A00D012210163FDF7EBFB8C
:1055900010BD0B6823F48063CFE70B6843F480638E
:1055A000CBE70163FDF7E1FB10BD000038B590F8D3
:1055B0003D10222910D1C36A418D03290DD90168FC
:1055C0000969426A1170416A491C4162418D491E54
:1055D0004185418D032906D038BDC26A022A02D016
:1055E000012906D029B10068416821F48061416039
:1055F00038BD2A4A46F2A81400211268B2FBF4F220
:1056000002EB8202009202682024009D6D1E00952C
:1056100026D01568AD05F8D4156825F480651560A9
:105620000268556825F4E065556002681269456AAC
:105630002A70426A521C4262428D521E428580F894
:105640003D4090F83E2080F83E10402A21D0082BA3
:1056500002D0202B00D012210163FDF784FB38BD5E
:10566000036C43F020030364536823F4E063536046
:1056700002681269436A1A70426A521C4262428D81
:10568000521E428580F83D4080F83E10FDF725FA15
:1056900038BD0163FDF769FB38BD000084010020BF
:1056A00010B5C26A90F83D1021290BD1418D51B13E
:1056B000416A026809781161416A491C4162418D61
:1056C000491E418510BD20230021082A13D0202A1D
:1056D00011D012F5803F0ED00268546824F4E064C3
:1056E00054601122026380F83E1080F83D3000BF04
:1056F000FDF73AFB10BD0268546824F4E06454607E
:105700000268146844F400741460016380F83D304A
:1057100090F83E2080F83E10402AE9D1FDF726FBA4
:1057200010BD000010B590F83D1090F83E30C26AF0
:10573000048DB4B1212903D0402B11D122290FD1DE
:10574000418DE1B390F83E10402942D0416A026891
:1057500009781161416A491C4162418D491E4185A8
:1057600010BD2129E8D120230021082A13D0202AA6
:1057700011D012F5803F0ED00268546824F4E06422
:1057800054601122026380F83E1080F83D3000BF63
:10579000FDF7EAFA10BD0268546824F4E06454602E
:1057A0000268146844F400741460016380F83D30AA
:1057B00090F83E2080F83E10402AE9D100E002E057
:1057C000FDF7D4FA10BD0068416821F480614160A2
:1057D00010BDBDE8104000F0D3B8000078B590F8D7
:1057E0003E50C26A036B90F83D6000240168222E8F
:1057F0007AD1066D0EB9402D76D0056D1DB90569BB
:10580000B5F5404F09D0458D05B3468D384D012E75
:105810000ED0438D022B3AD05DE04A698A6900922E
:105820000A6842F480720A60016D491C016578BD06
:10583000AA4213D10A6822F480620A6001684A68A9
:10584000120503D50A6822F4806216E04A698A6963
:1058500000920A6842F400720A6039E0082A10D007
:10586000202A0ED0122B0AD0042A03D0022A01D0FB
:10587000102AE7D10A6842F480620A6024E0012A13
:10588000E0D00A6822F480620A600168DEE7042A38
:1058900021D0022A1FD0102A1DD00B6823F4806368
:1058A0000B6001680B6843F400630B6001684B6890
:1058B0001B0509D5AA4212D0012A10D0082A0ED001
:1058C000102A0CD0202A0AD001684A6989690091FF
:1058D000046578BD08E00B6843F48063E5E74A6837
:1058E00042F480524A60EFE7486988690090F0E727
:1058F0000000FFFF90F83E10402910D00169B1F57B
:10590000804F19D0016DA9B3016D012910D1416CEF
:105910005FF0F10201F4407142EAD11106E0016D3D
:105920000029416C05D0C9B241F001010068016154
:10593000704701F0FE01F9E790F83D102129416C14
:1059400009D0C9B241F0010102681161416B29B16E
:10595000C96B49B902E001F0FE01F5E7816B00294E
:10596000E6D0C96B0029E3D00068416841F40061CA
:1059700041607047FFE7416CF02201F44071CBE7D2
:1059800010B590F83D10026D4AB1026D012A14D095
:10599000026D022A16D0BDE81040FFF7E5BCC16CCD
:1059A0000129816C02D0C1F3072108E00268C9B265
:1059B0001161016D891C016510BD816CC9B202685D
:1059C000116123E022291CD0428D0AB1212920D067
:1059D000428D002AF0D12129EED101684A6822F4D3
:1059E000E0624A6001680A6842F400720A600021BD
:1059F0000163202280F83D2080F83E10FDF7B6F9C3
:105A000010BD01680A6842F480720A60016D491C89
:105A1000D1E7416A026809781161416A491C416213
:105A2000418D491E418510BD38B50C4690F83D208A
:105A300000212825954302680B4605D051699169DC
:105A4000009180F83C3038BD556825F4806555607C
:105A5000E243540700D50121120601D5828900E0F6
:105A6000028B80F83C3092B2FCF7C1FE38BD0000DA
:105A70002DE9F04190F83D300446C26A002120260D
:105A80001E4F00686FF48065082A01D0202A01D1DA
:105A9000282B04D0212B17D04561BDE8F081E762A7
:105AA000426822F4E0624260206845612068026832
:105AB00022F480620260216384F83D6084F83E1025
:105AC0002046FDF74FF9E8E7E7622122226384F8D8
:105AD0003D6084F83E10416821F4E0614160206837
